:100000000C946C010C9494010C9494010C94940144
:100010000C9494010C9494010C9494010C9494010C
:100020000C9494010C9494010C949F110C940E1256
:100030000C9494010C9494010C9494010C949401EC
:100040000C9494010C9494010C9494010C949401DC
:100050000C9494010C9494010C9494010C945511FB
:100060000C9494010C9494010C9494010C949401BC
:100070000C9494010C9494010C9494010C949401AC
:100080000C9440140C9494010C9494010C949401DD
:100090000C949B140C9494010C9494010C94940172
:1000A0000C9494010C9494010C9494014163636545
:1000B000736F72696F204F46460053697374656DA4
:1000C00061204F46460041636365736F72696F201C
:1000D0004F4E000A004573706572616E646F206C4C
:1000E0006C6176652049534F3134343433410046D6
:1000F00069726D77617265207665722E20004368A3
:100100006970204E464320504E35004469646E2786
:10011000742066696E6420504E35337820626F61BA
:100120007264000A00002067726162616461206588
:100130006E206D656D6F72696120004C6C61766533
:1001400020002A2A2A2A2A2A2A2A2A2A2A2A2A2A43
:100150002A2A2A2A2A0047726162616E646F20652A
:100160006E206D656D6F726961000A00554944200B
:1001700056616C6F723A2000206279746573005585
:1001800049442054616D61C3B16F3A2000546172DB
:100190006A65746120656E636F6E7472616461215B
:1001A000000A000A005549442056616C6F723A20DB
:1001B00000206279746573005549442054616D6173
:1001C000C3B16F3A20005461726A65746120656E34
:1001D000636F6E7472616461210003080B00020298
:1001E00002000009040000010202000005240010C2
:1001F000010524010101042402060524060001076B
:1002000005810310004009040100020A00000007F4
:1002100005020240000007058302400000040309B4
:100220000412010002EF0201404123378000010166
:1002300002030141726475696E6F204C4C430041AA
:10024000726475696E6F204D6963726F0000000003
:1002500000240027002A002D0030000000000025A7
:100260000028002B002E0031000000000023002693
:100270000029002C002F00040404040403040502D8
:100280000202020403020202020606060606060431
:1002900004020202040404080201104080401020FD
:1002A000408040800802040180402010020110803C
:1002B00010204040200000000200090F000003044D
:1002C00001000C0000000000000000000000000021
:1002D00000000000FF15B11F11241FBECFEFDAE0B0
:1002E000DEBFCDBF26E0A6EAB3E001C01D92A33475
:1002F000B207E1F713E0A0E0B1E0EAE1F8E402C000
:1003000005900D92A63AB107D9F711E0CBE6D1E0FE
:1003100004C02197FE010E94E721CA36D107C9F720
:100320000E9469160C9400240C940000EF92FF9236
:100330000F93CF93DF93EC017B018AE480931D053B
:1003400081E080931E0510921F0580911C069091FC
:100350001D06DC01ED91FC910480F581E02D00E0AB
:1003600030E020E043E06DE175E0099581112BC09C
:1003700080911C0690911D06DC01ED91FC91068098
:10038000F781E02D28EE33E04FEF6DE175E0099540
:1003900097FD19C080911D058130A9F48091220537
:1003A000F701808380E090912205891798F4282F27
:1003B00030E0F901E250FB4F95A12C0F3D1FD90110
:1003C0009C938F5FF0CF80E0DF91CF910F91FF90F2
:1003D000EF90089581E0F8CFFC01809161048823BB
:1003E00011F13FB7F89482E08093E9002091F20088
:1003F000822F90E01816190614F481E090E088230B
:1004000039F0289A44E6409360044091F10040831B
:10041000222339F02091F200211103C02BE6209312
:10042000E8003FBF08958FEF9FEF08952FB7F8942E
:1004300083E08093E9009091E800892F807295FF16
:1004400004C09091F20080E4891B2FBF0895809131
:10045000580481110DC082E08093540484E080939D
:100460005504109257041092560481E0809358046A
:1004700084E594E0089581508F3008F047C0E82F5C
:10048000F0E0EB5BFD4F0C94E72162026602540240
:100490005A025E0286028602860269026F027302B7
:1004A00077027D0286028102809180008F7780939F
:1004B00080000895809180008F7DF9CF8091800029
:1004C000877FF5CF84B58F7784BD089584B58F7D00
:1004D000FBCF809190008F7780939000089580915A
:1004E00090008F7DF9CF80919000877FF5CF80912C
:1004F000C0008F778093C00008958091C0008F7DE9
:10050000F9CF8091C200877F8093C2000895CF9376
:10051000DF93282F30E0F901EB54FD4F8491F9016E
:10052000EA56FD4FD491F901E958FD4FC491CC230F
:10053000A1F081110E943B02EC2FF0E0EE0FFF1FB3
:10054000E759FD4FA591B491EC91ED2381E090E046
:1005500009F480E0DF91CF91089580E090E0FACF38
:100560001F93CF93DF93282F30E0F901EB54FD4F19
:100570008491F901EA56FD4FD491F901E958FD4FF4
:10058000C491CC23A9F0162F81110E943B02EC2FBD
:10059000F0E0EE0FFF1FE55AFD4FA591B4918FB724
:1005A000F894EC91111108C0D095DE23DC938FBF35
:1005B000DF91CF911F910895DE2BF8CFCF93DF937A
:1005C00090E0FC01EA56FD4F249189589D4FFC01B3
:1005D00084918823D1F090E0880F991FFC01E35BA0
:1005E000FD4FA591B491FC01E55AFD4FC591D49101
:1005F00061110EC09FB7F8948C91E22FE0958E2385
:100600008C932881E223E8839FBFDF91CF910895E7
:100610008FB7F894EC91E22BEC938FBFF6CF3FB7F6
:10062000F8948091500490915104A0915204B0919B
:10063000530426B5A89B05C02F3F19F00196A11DB4
:10064000B11D3FBFBA2FA92F982F8827BC01CD011C
:10065000620F711D811D911D42E0660F771F881F7B
:10066000991F4A95D1F708958F929F92AF92BF92AA
:10067000CF92DF92EF92FF926B017C010E940F03F9
:100680004B015C01C114D104E104F104B9F00E94F2
:100690000F03681979098A099B09683E734081052F
:1006A000910580F321E0C21AD108E108F10888EE33
:1006B000880E83E0981EA11CB11CE4CFFF90EF9040
:1006C000DF90CF90BF90AF909F908F9008952FB7FD
:1006D000F89460914C0470914D0480914E04909177
:1006E0004F042FBF0895CF92DF92EF92FF92C090F8
:1006F0003B06D0903C06E0903D06F0903E060E94FE
:1007000067036C157D058E059F0518F180913606EF
:100710000E9487022091390628171906D1F00E94FD
:1007200067032091370630913806620F731F811DD1
:10073000911D60933B0670933C0680933D06909319
:100740003E068091390691E089278093390690937F
:100750003A0680913906FF90EF90DF90CF90089590
:100760000E947303811107C080913A06882321F00B
:1007700010923A06089580E0089540914504509102
:100780004604209143043091440442175307B4F4C3
:100790009091E8009570E1F39091E80092FD19C006
:1007A0008093F100809145049091460401968F73E7
:1007B0009927892B19F48EEF8093E80080914504E6
:1007C000909146040196909346048093450481E0FD
:1007D000089580E00895EF92FF920F931F93CF93B7
:1007E000DF93F82E192FE62E042F81E0860F880F55
:1007F0000E94BD0383E00E94BD03CF2DD12FEC0EDC
:10080000FD2EF11CCE15DF05B9F007FF13C0FE0168
:1008100084910E94BD03182F80E00E94BD038123B4
:1008200021968111EFCFDF91CF911F910F91FF9012
:10083000EF9008958881EDCF81E0F5CFDF92EF92C0
:10084000FF920F931F93CF93DF93D82E8A01EB0172
:100850007B01E40EF51ECE15DF0559F0D7FE12C060
:10086000FE0184910E94BD0321968111F4CF0FEF08
:100870001FEFC801DF91CF911F910F91FF90EF9073
:10088000DF9008958881EECF0F931F93CF93DF936E
:100890001F92CDB7DEB782E0898342E450E06BED72
:1008A00071E080E80E941E040E942702DC0112967B
:1008B0000D911C910115110589F0D801ED91FC9164
:1008C0000280F381E02DBE016F5F7F4FC801099563
:1008D00097FD04C0F80100851185ECCF89810F9048
:1008E000DF91CF911F910F910895615030F02091C9
:1008F000F100FC0120830196F8CF289A84E68093CA
:10090000600408959091000189130DC0EAEDF1E0B3
:10091000E4919FEF90930001E13059F038F0E3301B
:1009200071F0E43091F060E00C94B00210926E002F
:10093000FACF90916F009D7F90936F00F4CF9091CC
:1009400071009D7F90937100EECF909172009F7B1C
:1009500090937200E8CF4F925F926F927F928F9246
:100960009F92AF92BF92CF92DF92EF92FF920F933E
:100970001F93CF93DF9300D000D01F92CDB7DEB787
:100980008B0129013A01909100018917C9F09F3F1D
:1009900009F47DC00F900F900F900F900F90DF9192
:1009A000CF911F910F91FF90EF90DF90CF90BF906C
:1009B000AF909F908F907F906F905F904F90089531
:1009C000EAEDF1E094919D8397FDE4CF61E00E9410
:1009D000DE028D81882321F09D81923009F04DC186
:1009E0004801B12CA12C60E072E18AE790E0A501FA
:1009F00098010E94C82129833A834B835C83690153
:100A00007A0181E0C81AD108E108F1089FEFC91600
:100A1000D104E104F10409F00CF405C160E472E4CE
:100A20008FE090E0A50198010E94C82169017A0138
:100A300081E0C81AD108E108F1089D81923009F0DF
:100A4000C6C08FEFC816D104E104F10409F00CF41C
:100A5000F2C060E970ED83E090E0A50198010E948A
:100A6000C82169017A0191E0C91AD108E108F108A9
:100A70008FEFC816D104E104F10411F00CF0BDC1F0
:100A8000411451046104710409F484CF53C180936B
:100A90000001EAEDF1E094919D839F3F09F47ACF44
:100AA000913059F168F0933009F449C0943009F459
:100AB0006CC09D8197FD6ECF61E00E94DE028CCFFD
:100AC00014BC15BC94B5926094BD95B5916095BD6C
:100AD000282F30E0F901E958FD4FE491F0E0EE0FE6
:100AE000FF1FE55AFD4F45915491F901EA56FD4F1C
:100AF000E491E0932F041D8269CF10928000109240
:100B00008100909181009860909381009091810084
:100B1000916090938100282F30E0F901E958FD4F52
:100B2000E491F0E0EE0FFF1FE55AFD4F459154911F
:100B3000F901EA56FD4FE491E0932E0447CF10925D
:100B40009000109291009091910098609093910084
:100B500090919100916090939100282F30E0F901DD
:100B6000E958FD4FE491F0E0EE0FFF1FE55AFD4F0D
:100B70004591549150933D0440933C04F901EA5649
:100B8000FD4FE491E0933E0421CF1092C0001092FB
:100B9000C1009091C10098609093C1009091C100F4
:100BA00091609093C100282F30E0F901E958FD4F82
:100BB000E491F0E0EE0FFF1FE55AFD4F459154918F
:100BC000F901EA56FD4FE491E0932D04FFCE9FEF2B
:100BD000C916D104E104F10409F00CF44CC068E436
:100BE00078EE81E090E0A50198010E94C82169019A
:100BF0007A0181E0C81AD108E108F1089D819923A2
:100C000009F439C18FEFC816D104E104F10411F0E1
:100C10000CF03AC1411451046104710409F453C049
:100C200091E09D8387C081E09D81911104C095B5BD
:100C3000987F892B85BD2FEF3FEFA9014114510407
:100C40006104710409F076C08D81813009F43EC0E1
:100C50000CF0A0C081119ECEC7BC20933804309305
:100C6000390440933A0450933B0480916E008260B3
:100C700080936E008FCE82E0D7CFB12CA12C60E0A4
:100C800072E18AE790E0A50198010E94C8216901FC
:100C90007A0181E0C81AD108E108F108C114D10431
:100CA00091E0E906F10424F591E08D81813089F528
:100CB00080918100887F892B8093810041145104A9
:100CC00061047104B9F52FEF3FEFA901D0928900BB
:100CD000C092880020933404309335044093360446
:100CE0005093370480916F00826080936F0052CEE2
:100CF00068E478EE81E090E0A50198010E94C821A7
:100D000069017A0181E0C81AD108E108F10893E08D
:100D1000CCCF8D818330E1F480919100887F892B45
:100D2000809391002FEF3FEFA9014114510461041A
:100D30007104B1F1D801AA0FBB1FA30192010E9457
:100D40000B2128EE33E040E050E00E94A6217CCF4A
:100D50008D81843009F06FCF8091C100887F892B0D
:100D60008093C1002FEF3FEFA901411451046104AA
:100D7000710401F7C092CF00209330043093310406
:100D800040933204509333048091720080648093C6
:100D9000720000CE9D81933019F0943059F3FACD52
:100DA000D0929900C092980020933F043093400461
:100DB000409341045093420480917100826080937B
:100DC0007100E8CD84E09FEFC916D104E104F1047D
:100DD00009F008F42CCFC980DA80EB80FC809AE01F
:100DE000F594E794D794C7949A95D1F781E0C81AFF
:100DF000D108E108F10885E01ACF68E478EE81E0D7
:100E000090E0A50198010E94C82169017A0181E062
:100E1000C81AD108E108F1089FEFC916D104E1040E
:100E2000F10409F00CF407CF64E274EF80E090E085
:100E3000A50194010E94C82169017A0181E0C81AC4
:100E4000D108E108F1089FEFC916D104E104F104CB
:100E500009F008F415CE62E17AE780E090E0A501A0
:100E600094010E94C82169017A0181E0C81AD10861
:100E7000E108F1081CC083E09FEFC916D104E1042A
:100E8000F10409F00CF4D3CE62E17AE780E090E05F
:100E9000A50194010E94C82169017A0181E0C81A64
:100EA000D108E108F1089D81992309F48BCF9FEFC8
:100EB000C916D104E104F10409F008F4BCCEC980DC
:100EC000DA80EB80FC808AE0F594E794D794C794AD
:100ED0008A95D1F781E0C81AD108E108F108ABCEB4
:100EE000CF92DF92EF92FF920F931F93CF93DF93F6
:100EF0008C01D0E0C0E06B01770FEE08FF082CE218
:100F000031E040E050E06CED75E085E00E94AB041C
:100F1000C701B6010E94340321960C171D0779F70B
:100F2000DF91CF911F910F91FF90EF90DF90CF90C5
:100F30000895AF92BF92CF92DF92EF92FF920F93FC
:100F40001F93CF93DF93C6E9D1E006E211E088EE6C
:100F5000A82E83E0B82E69917991C5010E94922153
:100F60006B01F801619171918F010D2C000CEE085D
:100F7000FF08A701960185E00E94AB04C701B601F6
:100F80000E94FC1F26E636E646EE5FE30E9437200D
:100F90000E945C21072E000C880B990B0E943403E1
:100FA00085E00E948204F1E0C23ADF07A1F6DF91FA
:100FB000CF911F910F91FF90EF90DF90CF90BF9056
:100FC000AF9008958F929F92AF92BF92CF92DF928F
:100FD000EF92FF920F931F93CF93DF936C017B01EE
:100FE0008A0180910C01882309F45CC0809161041E
:100FF000882309F457C08091490480FF05C080917F
:10100000E00082608093E000E801B12C8AEFA82E16
:1010100093E0892E2AE3922E209711F4BB20D9F178
:101020000E94160281110AC0AA94AA20D9F161E097
:1010300070E080E090E00E943403EECF8C171D0634
:1010400011F00CF08C2F9FB7F8948092E90020915A
:10105000E80025FD02C09FBFDFCF282F30E0C21B74
:10106000D30BF701815020F041914093F100FACF6A
:10107000E20EF31EBB2021F09092E800B12CEBCFE2
:101080008091E80085FDE7CF9092E800BB24B394FF
:10109000209709F3F3CF5D9A84E680934A041016F3
:1010A00011063CF081E090E0F6019383828310E02A
:1010B00000E0C801DF91CF911F910F91FF90EF9059
:1010C000DF90CF90BF90AF909F908F900895CF9377
:1010D000DF931F92CDB7DEB76983DC01ED91FC9100
:1010E0000280F381E02D41E050E0BE016F5F7F4F51
:1010F00009950F90DF91CF910895682F8EEA94E0C3
:101100000C9467080F931F93CF93DF938C01D0E06B
:10111000C0E0F801EC0FFD1F6491662341F08EEAF8
:1011200094E00E946708892B11F02196F2CFCE013E
:10113000DF91CF911F910F91089583E08093E90093
:101140008091F200882319F08AE38093E8000895E3
:101150000E94160290E00895CF93DF931F92CDB7BF
:10116000DEB7FC018485958597FD08C02FEF3FEF22
:10117000358724870F90DF91CF910895CE01019696
:101180000E94EC01019719F4898190E0F3CF8FEF71
:101190009FEFF0CF0F931F93CF93DF931F92CDB7A5
:1011A000DEB78C01FC018485958597FF0BC0CE01CD
:1011B00001960E94EC01019771F4898190E0F80199
:1011C00095878487F801848595850F90DF91CF916D
:1011D0001F910F9108958FEF9FEFF1CFFC01848550
:1011E000958597FD0BC09FB7F89482E08093E90046
:1011F0008091F2009FBF90E0019608959FB7F89408
:1012000082E08093E9008091F2009FBF90E0089512
:101210002091F403260F3327331F21323105ECF4DC
:101220002091A804FC0190E080E0243069F082E085
:101230000895A091F4032191AC014E525C4FA40F8C
:10124000B52FB11D2C930196861798F38091F40366
:10125000680F6093F40380E0089581E00895109290
:10126000A80481E0809387041092820461E082E008
:101270000E94B00261E083E00E94B002E9EBF0E07E
:1012800080818E7F808380818D7F808388E48093BE
:10129000B80085E48093BC000895CF93DF9391E07C
:1012A0009093D1038823B9F0C091B800D091BA00CF
:1012B0008091BC008A7B8093BC0060E082E00E9449
:1012C000B00260E083E00E94B0020E942F09D09338
:1012D000BA00C093B800DF91CF910895CF92DF920A
:1012E000EF92FF920F931F93CF93DF93D82FC62FC8
:1012F000613208F098C00E940F036B017C0180915D
:10130000A80481116BC081E08093A80480938704B6
:101310009FEF90938604109285049C0F9093840411
:101320008093830480918304DD0FD82BD0938304B2
:1013300080918204813009F078C0109282040E946A
:101340000F036B017C01809183048093BB0080912B
:10135000AA049091AB04A091AC04B091AD04892B88
:101360008A2B8B2BA1F00E940F030091AA041091ED
:10137000AB042091AC043091AD046C197D098E0949
:101380009F09061717072807390708F448C08091F6
:10139000BC0083FDD8CF85EC8093BC000E940F0376
:1013A0006B017C018091A804813009F440C08091D8
:1013B00085048C1710F4C0918504E2E6F4E0A8E8F7
:1013C000B4E080E08C1355C08C2FDF91CF911F913A
:1013D0000F91FF90EF90DF90CF9008958091AA0435
:1013E0009091AB04A091AC04B091AD04892B8A2BF1
:1013F0008B2B09F484CF0E940F030091AA04109153
:10140000AB042091AC043091AD046C197D098E09B8
:101410009F09061717072807390708F070CF809132
:10142000A9040E944D09C0E0CFCF85EEB5CF8091D1
:10143000AA049091AB04A091AC04B091AD04892BA7
:101440008A2B8B2B09F4AECF0E940F030091AA04C4
:101450001091AB042091AC043091AD046C197D095E
:101460008E099F09061717072807390708F09ACF32
:10147000D6CF91919D938F5FA5CFDC01ED91FC912B
:101480000284F385E02D09950895DC01ED91FC912E
:101490000190F081E02D0995089564EF71E080E0FE
:1014A00090E00C943403089508951092D0031092A4
:1014B000CF031092CC031092CB030E942F0983E537
:1014C0009AE09093F3038093F20384E59AE090937B
:1014D000F7038093F60308950895E091D003809177
:1014E000CF03E81730F4F0E0E857FB4F808190E03D
:1014F00008958FEF9FEF08959091D0038091CF03CF
:101500002FEF3FEF981748F4E92FF0E0E857FB4F33
:10151000208130E09F5F9093D003C90108958091AE
:10152000CF039091D003891B990B0895CF92DF923E
:10153000EF92FF920F931F93CF93DF937C01CB0128
:101540008A012091CE03222389F0EB016B01C40EA6
:10155000D51ECC15DD0569F06991D701ED91FC919F
:101560000190F081E02DC7010995F3CF642F0E940F
:101570000809C801DF91CF911F910F91FF90EF9063
:10158000DF90CF900895CF93DF931F92CDB7DEB752
:1015900069832091CE032223F9F02091CB032032DE
:1015A00058F021E030E0FC013383228390E080E0BA
:1015B0000F90DF91CF9108958091CC03E82FF0E058
:1015C000E555FC4F998190838F5F8093CC03809386
:1015D000CB0381E090E0ECCF61E0CE0101960E9468
:1015E0000809F7CFCF92DF92EF92FF920F931F93EC
:1015F000CF93DF93D091CB0381E0D13208F09CC030
:10160000C091CD030E940F036B017C018091A8045F
:1016100081116CC082E08093A80481E080938704EC
:101620008FEF8093860410928504D0938404ABEAF4
:10163000B3E0E2E6F4E080E0D8138DC010928304BA
:1016400080918304CC0FC82BC093830480918204C3
:10165000813009F084C0109282040E940F036B0154
:101660007C01809183048093BB008091AA049091B7
:10167000AB04A091AC04B091AD04892B8A2B8B2BC9
:10168000A1F00E940F030091AA041091AB042091D5
:10169000AC043091AD046C197D098E099F090617C1
:1016A00017072807390708F442C08091BC0083FD62
:1016B000D8CF85EC8093BC000E940F036B017C01A6
:1016C0008091A804823009F44CC0809186048F3F39
:1016D00009F469C080918604803209F466C0809163
:1016E0008604803309F463C084E026C08091AA0494
:1016F0009091AB04A091AC04B091AD04892B8A2BDE
:101700008B2B09F483CF0E940F030091AA04109140
:10171000AB042091AC043091AD046C197D098E09A5
:101720009F09061717072807390708F06FCF809120
:10173000A9040E944D0985E01092CC031092CB03BE
:101740001092CE03DF91CF911F910F91FF90EF90F8
:10175000DF90CF9008959D9191938F5F6DCF85EE2F
:10176000A9CF8091AA049091AB04A091AC04B09150
:10177000AD04892B8A2B8B2B09F4A2CF0E940F0377
:101780000091AA041091AB042091AC043091AD04F7
:101790006C197D098E099F09061717072807390755
:1017A00008F08ECFC4CF80E0C7CF82E0C5CF83E002
:1017B000C3CF90E080E0089588E00E94870221E096
:1017C00030E0019711F030E020E0C90108956F92F8
:1017D0007F928F929F92AF92BF92CF92DF92EF92C1
:1017E000FF920F931F93CF93DF9300D000D000D0D0
:1017F000CDB7DEB78C01B62EA72E742E690186E018
:10180000E3E1F1E0DE01119601900D928A95E1F796
:10181000F12CE12C66E084E20E946E091092D00364
:101820008093CF03811112C061E070E080E090E00E
:101830000E9434038FEFE81AF80AC114D10451F35F
:10184000CE14DF0438F78FEF9FEF10C0F8018281CC
:1018500093810E943D0A80FFE7CFF8018281938146
:101860000E943D0A882339F18DEF9FEFF12CE12C86
:1018700098E0992E980E692DF0E2F91508F460E2CF
:1018800084E20E946E091092D0038093CF038111ED
:1018900049C061E070E080E090E00E9434038FEF87
:1018A000E81AF80AC114D10431F3CE14DF0418F792
:1018B0008FEF9FEF47C0F801828193810E943D0A1C
:1018C0008111D2CFF801828193810E943D0A8F3F1E
:1018D00059F6F801828193810E943D0A682E81E0C9
:1018E0008093CE0384E28093CD031092CC031092B8
:1018F000CB03CE0101967C014E0197E0890E911C2D
:10190000F70161917F01F801828193810E94450A6C
:101910008E149F04A9F7F801828193810E94F20A34
:10192000862DA4CFF801828193810E943D0A80FF19
:10193000B0CFF801828193810E943D0A8823B9F0DB
:101940008DEF9FEF26960FB6F894DEBF0FBECDBF8A
:10195000DF91CF911F910F91FF90EF90DF90CF908B
:10196000BF90AF909F908F907F906F900895F801F7
:10197000828193810E943D0A8111E2CFF801828128
:1019800093810E943D0A8F3FD9F6F80182819381AD
:101990000E943D0AF82EF801828193810E943D0A3F
:1019A0008F0D71F6F801E480DD24D394DE0C828182
:1019B00093810E943D0A853D19F6F8018281938149
:1019C0000E943D0AD812BCCFFA94FA948CEF9FEF94
:1019D0007F1408F4B7CFF6EDEF0E9B2CCB2CDA2C4E
:1019E000F801828193812C2D29192F1538F40E943A
:1019F0003D0AF60181936F01E80EF2CF0E943D0A85
:101A00008E0D09F09DCFF801828193810E943D0ADD
:101A10008F2D90E097CFFC01808191810C94F5206F
:101A2000FC0101900020E9F73197AF01481B590BE9
:101A3000BC018EEA94E00C94E2078F929F92AF92E1
:101A4000BF920F931F93CF93DF93CDB7DEB7A197CC
:101A50000FB6F894DEBF0FBECDBF19A2423008F416
:101A60004AE08E010F5D1F4F842E912CB12CA12CCA
:101A7000A50194010E94A621E62FB901CA01EA300E
:101A8000F4F4E05DD801EE938D01232B242B252B5C
:101A900079F790E080E0109719F0CD010E94100DC9
:101AA000A1960FB6F894DEBF0FBECDBFDF91CF91E8
:101AB0001F910F91BF90AF909F908F900895E95C18
:101AC000E1CFCF93DF93D0E0C0E0009719F00E9400
:101AD000100DEC0186E392E00E94100D8C0F9D1F0B
:101AE000DF91CF910895CF93DF930E948208EC019C
:101AF00086E392E00E94100D8C0F9D1FDF91CF9125
:101B00000895CF93DF93682F70E090E080E04AE083
:101B10000E941D0DEC0186E392E00E94100D8C0FD7
:101B20009D1FDF91CF9108958F929F92AF92BF92A8
:101B3000EF92FF920F931F93CF938C014A015B01A9
:101B4000C0E08C2F90E0B0E0A0E088159905AA05D0
:101B5000BB05C8F47801EC0EF11CF70180818031DF
:101B600070F489E392E00E94100DF701608170E04B
:101B700090E080E040E10E941D0DCF5FE2CF80E267
:101B80000E947D08F2CF88E392E0CF911F910F91E0
:101B9000FF90EF90BF90AF909F908F900C94610D4D
:101BA000CF92DF92EF92FF920F931F93CF93DF9329
:101BB000EC010E94670328EE33E040E050E00E9411
:101BC000A62189019A016B017C014AE0C901B80193
:101BD0000E941D0D8CE392E00E94100D4AE0C701A7
:101BE000B6010E941D0D8EE392E00E94100D8881C7
:101BF0009981DF91CF911F910F91FF90EF90DF902E
:101C0000CF900C94610D0F931F93CF93DF93EC0152
:101C100088819981009759F02A813B8126173707DF
:101C200030F081E0DF91CF911F910F9108958B01EA
:101C30006F5F7F4F0E942623009759F09983888316
:101C40001B830A832C813D81232B59F7FC011082D1
:101C5000E8CF80E0E7CFCF93DF93EC0188819981D3
:101C6000009711F00E949D22198218821D821C8209
:101C70001B821A82DF91CF910895EF92FF920F930A
:101C80001F93CF93DF93EC018B01CB010E94BC1F0C
:101C90007C01BC01CE010E94030E81110BC0CE015C
:101CA0000E942B0ECE01DF91CF911F910F91FF90DB
:101CB000EF900895FD82EC82B801888199810E949D
:101CC000B51FF0CFFC0180819181009711F00C9439
:101CD0009D220895CF93DF9300D000D000D0CDB7E0
:101CE000DEB71A8219821C821B821E821D8266EC5C
:101CF00070E0CE0101960E943D0ECE0101960E9439
:101D0000D00DCE0101960E94620E61E089E00E9432
:101D1000B00281E090E090932C0480932B040E9409
:101D200067036093230470932404809325049093A5
:101D3000260426960FB6F894DEBF0FBECDBFDF9106
:101D4000CF910895CF93DF9300D000D000D0CDB7CE
:101D5000DEB760E087E00E94B00260E088E00E94A9
:101D6000B00260E089E00E94B00261E086E00E947B
:101D7000B0020E94670360931B0470931C0480935D
:101D80001D0490931E041A8219821C821B821E82DB
:101D90001D826AEB70E0CE0101960E943D0ECE01DD
:101DA00001960E94D00DCE0101960E94620E809194
:101DB0003506882389F010922C0410922B0460E0E1
:101DC00086E00E94B00226960FB6F894DEBF0FBEE2
:101DD000CDBFDF91CF91089583E090E090932C04E4
:101DE00080932B04F0CFEF92FF920F931F93CF932A
:101DF000DF93EC017B01198218821B821A821D82FB
:101E00001C82FB0101900020E9F731978F01061B2E
:101E1000170BB8010E94030E811109C0CE01DF919A
:101E2000CF911F910F91FF90EF900C942B0E1D837B
:101E30000C83B70188819981DF91CF911F910F9118
:101E4000FF90EF900C94F9238F929F92AF92BF92E4
:101E5000CF92DF92EF92FF92CF93DF9300D000D02A
:101E600000D0CDB7DEB761E088E00E94B00261E447
:101E700072E0CE0101960E94F30ECE0101960E94FF
:101E8000D00DCE0101960E94620E62E370E080E008
:101E900090E00E9434038AE00E948702019709F0D3
:101EA000ABC01A8219821C821B821E821D826CEAC0
:101EB00070E0CE0101960E943D0ECE0101960E9477
:101EC000D00DCE0101960E94620E60E089E00E9472
:101ED000B00210922C0410922B046DE472E0CE013B
:101EE00001960E94F30ECE0101960E94D00DCE0104
:101EF00001960E94620E6FE572E0CE0101960E948B
:101F0000F30ECE0101960E94D00DCE0101960E94E3
:101F1000620E69E672E0CE0101960E94F30ECE01D8
:101F200001960E94D00DCE0101960E94620E0E9481
:101F3000670360931F04709320048093210490939F
:101F400022044B015C0120E7820E27E1921EA11CB6
:101F5000B11C6B017C0124E8C20E23E0D21EE11CFF
:101F6000F11C61E087E00E94B0020E9467038616C0
:101F70009706A806B90658F00E9467036C157D0500
:101F80008E059F0570F30E947303882351F360E070
:101F900087E00E94B00268E772E0CE0101960E94DD
:101FA000F30ECE0101960E94D00DCE0101960E9443
:101FB000620E61E086E00E94B0020E946A0E82E03A
:101FC00090E090932C0480932B0468EE73E080E003
:101FD00090E00E94340326960FB6F894DEBF0FBE41
:101FE000CDBFDF91CF91FF90EF90DF90CF90BF906A
:101FF000AF909F908F90089563E872E0CE010196B4
:102000000E94F30ECE0101960E94D00DCE010196E2
:102010000E94620E60E088E00E94B00268E972E00F
:10202000CE0101960E94F30ECE0101960E94D00DC2
:10203000CE0101960E94620E80912B0490912C0497
:102040008130910519F40E94A20EBFCF009719F0BC
:10205000039709F0BACF0E946A0EB7CF85ED80933F
:10206000BC008091AA049091AB04A091AC04B09103
:10207000AD040796A11DB11D23E0B695A7959795D0
:1020800087952A95D1F72091BC0024FD03C01092BA
:10209000A80408954091AA045091AB046091AC0447
:1020A0007091AD04452B462B472B69F30097A10592
:1020B000B10541F02AE22A95F1F700C00197A10984
:1020C000B109E1CF8091A9040C944D095F926F9200
:1020D0007F928F929F92AF92BF92CF92DF92EF92B8
:1020E000FF920F931F93CF93DF93CDB7DEB72C975B
:1020F0000FB6F894DEBF0FBECDBF7C016B01842EFE
:10210000B22E532EFB018081F7018483828193815B
:1021100021E02093CE0324E22093CD031092CC0340
:102120001092CB0360E00E94450A60E0F7018281D3
:1021300093810E94450A6FEFF701828193810E948B
:10214000450A182D100F61E0610FF701828193811C
:102150000E94450A612F6095F701828193810E9458
:10216000450A64EDF701828193810E94450A8C0C37
:102170009D2C911C14EDF70182819381C814D90420
:10218000C9F4CB2CD52C5601A00EB11CF7018281CD
:102190009381CA14DB0499F14601F60160810E9423
:1021A000450A882371F0FFEFCF1ADF0AF40180811E
:1021B000180FECCF3601F60160810E94450A8111AB
:1021C00017C08DEF2C960FB6F894DEBF0FBECDBFB3
:1021D000DF91CF911F910F91FF90EF90DF90CF9003
:1021E000BF90AF909F908F907F906F905F90089579
:1021F000FFEFCF1ADF0AF3018081180FBCCF612FE8
:1022000061950E94450A60E0F701828193810E94F6
:10221000450AF701828193810E94F20A86E0E9E192
:10222000F1E0DE01179601900D928A95E1F70BE03F
:1022300010E067E084E20E946E091092D003809360
:10224000CF0381110BC061E070E080E090E00E945C
:1022500034030150110969F78EEFB4CFF701828181
:1022600093810E943D0A80FFEECF8E010F5F1F4FCA
:102270006E01F7E0CF0ED11C5801F70182819381E6
:102280000E943D0AF80181938F01CE16DF06A9F75F
:1022900046E050E0B601C5010E94E32321E0892B0E
:1022A00009F420E0822F81958DCF1F920F920FB6F7
:1022B0000F9211242F933F938F939F93AF93BF93CC
:1022C00080914C0490914D04A0914E04B0914F0424
:1022D00030914B0423E0230F2D3758F50196A11DB3
:1022E000B11D20934B0480934C0490934D04A09314
:1022F0004E04B0934F048091500490915104A091EA
:102300005204B09153040196A11DB11D8093500455
:1023100090935104A0935204B0935304BF91AF9192
:102320009F918F913F912F910F900FBE0F901F9013
:10233000189526E8230F0296A11DB11DD2CF1F923A
:102340000F920FB60F9211248F939F938091E1000B
:102350009091E100937F9093E10083FF0FC0109272
:10236000E90091E09093EB001092EC0092E39093DF
:10237000ED001092610498E09093F00082FF22C07B
:1023800093E09093E9009091F200992319F09AE379
:102390009093E80090914A04992341F090914A0467
:1023A000915090934A04911101C05D9890916004FE
:1023B000992341F0909160049150909360049111A1
:1023C00001C0289884FF18C08091E2008E7E816051
:1023D0008093E2008091E1008F7E8093E100809104
:1023E00049048E7E8061809349049F918F910F9064
:1023F0000FBE0F901F90189580FFF7CF8091E200DD
:102400008E7E80618093E2008091E1008E7E8093D9
:10241000E100809149048E7E8160E5CF1F920F928A
:102420000FB60F921124CF92DF92EF92FF920F938B
:102430001F932F933F934F935F936F937F938F934C
:102440009F93AF93BF93EF93FF93CF93DF93CDB75A
:10245000DEB76C97DEBFCDBF1092E9008091E80037
:1024600083FF25C068E0CE0145960E94750482EF87
:102470008093E8008D8987FF39C09091E80090FF34
:10248000FCCF982F907609F034C19E894F89588DE2
:102490002F89F88C911131C0803861F58091480402
:1024A0008093F1001092F1008EEF8093E8006C961B
:1024B0000FB6F894DEBF0FBECDBFDF91CF91FF9175
:1024C000EF91BF91AF919F918F917F916F915F91AC
:1024D0004F913F912F911F910F91FF90EF90DF90BF
:1024E000CF900F900FBE0F901F9018959EEF909376
:1024F000E800C7CF1092F100D5CF913059F4811187
:10250000D3CF4130510581F6809148048D7F80936F
:102510004804CACF933049F48111C6CF41305105E8
:1025200019F6809148048260F2CF953041F4809191
:10253000E80080FFFCCF20682093E300B5CF963001
:1025400009F0A9C00B8D1C8D22E01092E9001092B9
:10255000460410924504F2122EC0109244041092C8
:1025600043040E9444041F8299E09983FA8291E017
:102570009E8390EA98879AEF99872091450430913D
:102580004604275F3F4F3C832B838D831092E900E5
:10259000109246041092450410934404009343049F
:1025A00049E050E0BE016F5F7F4F80E00E941E0453
:1025B0000E94440479CF10934404009343040E9482
:1025C0002702DC0112960D911C910115110509F4E9
:1025D00051C1D801ED91FC910480F581E02DBE013F
:1025E0006B5E7F4FC8010995009709F03EC1F80165
:1025F00000851185EACFF3E0FF120EC08F89882392
:1026000009F440C0823061F440E86DE08FE392E06D
:102610000E94EB03811148CF81E28093EB0047CF0A
:10262000813029F440E86BE083E392E0F1CF83301E
:1026300099F70E942702DC011296ED90FC908E0122
:102640000F5F1F4F6801E114F10479F0D701ED919C
:10265000FC910680F781E02DB801C7010995080FAC
:10266000111DF701E084F184EECFD8011C92F60130
:1026700001900020E9F73197BF016C197D0940E016
:10268000C601C6CF6DE172E0FB01449150E080E8E5
:102690000E941E0409CF973009F4BECF983021F470
:1026A00081E08093F10000CF993009F0FDCE837076
:1026B00009F0B2CFE0E2F1E081E031E096E3219170
:1026C000222371F08093E9003093EB00DF01119732
:1026D0002C912093EC009093ED008F5F873079F779
:1026E0008EE78093EA001092EA008F89809361045C
:1026F000DBCE8B8D9C8D1092E900109246041092D7
:1027000045049093440480934304898D811192C0C1
:102710008E899D89913A49F4813209F07DCF47E055
:1027200050E065E071E080E0B3CF913209F074CF02
:10273000833269F48F89988DB0E0A0E08093010125
:1027400090930201A0930301B0930401ADCE8032B7
:1027500069F48091E80082FFFCCF67E085E091E0BA
:102760000E9475048BEF8093E8009ECE823209F0C0
:102770009BCE8F8980930C01EEEFFFE785919491BA
:102780008B3F9C4D51F1E0E0F8E080910501909184
:102790000601A0910701B0910801803B9440A1057A
:1027A000B105F1F480910C0180FD1AC0EE3F8AE082
:1027B000F80789F587E797E7918380838091600028
:1027C0008093470488E19BE00FB6F894A895809326
:1027D00060000FBE9093600067CEEEEFFAE0D5CFB9
:1027E000808191818737974709F05ECEA8958091C7
:1027F000600088618093600080914704809360004E
:10280000EE3F2AE0F20789F08091FE0A9091FF0ADC
:102810009183808349CE808191818737980751F2D7
:102820009093FF0A8093FE0AC5CF1092FF0A109280
:10283000FE0A3ACE0E942702DC0112960D911C91ED
:102840000115110509F4E8CED801ED91FC91019034
:10285000F081E02DBE016B5E7F4FC80109958111AB
:1028600023CEF80100851185EBCF181619060CF45C
:102870001BCED2CEF1E0FF12BECE61E272E004CFF9
:102880001F920F920FB60F9211248F939F93AF93C5
:10289000BF93EF93FF9380913F0490914004A091E8
:1028A0004104B0914204892B8A2B8B2BA1F190918A
:1028B0003E04E0913C04F0913D04808189278083AF
:1028C00080913F0490914004A0914104B091420452
:1028D000181619061A061B069CF480913F04909165
:1028E0004004A0914104B09142040197A109B109AB
:1028F00080933F0490934004A0934104B09342041A
:10290000FF91EF91BF91AF919F918F910F900FBE6B
:102910000F901F901895809171008D7F80937100AA
:1029200080913E04E0913C04F0913D0490818095BB
:1029300089238083E5CF1F920F920FB60F92112447
:102940002F933F934F935F936F937F938F939F93B7
:10295000AF93BF93EF93FF938091B900887F803648
:1029600009F44AC0F0F5883209F4A7C018F580319F
:1029700009F49BC0B8F4882309F4F9C0883009F43D
:1029800094C0FF91EF91BF91AF919F918F917F91F3
:102990006F915F914F913F912F910F900FBE0F90CC
:1029A0001F901895883109F488C0803251F78093C0
:1029B000860414C0803409F49DC040F48033B9F318
:1029C0008833F9F68093860485ECB0C0803509F42D
:1029D00085C0883509F496C0883499F60E942E1077
:1029E000D0CF883909F48CC038F5883729F050F4F5
:1029F000883611F0803729F683E08093A80410927E
:102A0000180457C0883809F47BC0803919F0803821
:102A100009F0B7CF80911804803208F071C0E091BE
:102A2000180481E08E0F809318048091BB00F0E0C1
:102A3000E850FC4F80833DC0803B39F0E0F4803AA1
:102A400009F479C0883A09F09CCF84E08093A80407
:102A50001092F5031092F403E091F203F091F30366
:102A600009958091F40381110FC081E08093F403F4
:102A70001092D20309C0803C09F4A6CF883C09F427
:102A8000A3CF883B09F07DCFE091F50381E08E0F65
:102A90008093F503F0E0EE52FC4F80818093BB0001
:102AA0009091F5038091F40329C080918304809371
:102AB000BB0085EC8093BC0064CF9091850480912D
:102AC0008404981758F5E091850481E08E0F809377
:102AD0008504F0E0EE59FB4F8081E9CFE091850459
:102AE00081E08E0F809385048091BB00F0E0EE5969
:102AF000FB4F808390918504809184049817C8F2DD
:102B000085E8D8CFE091850481E08E0F809385041D
:102B10008091BB00F0E0EE59FB4F808380918704E9
:102B200081115CCF81E08093820484EA8093BC00B1
:102B30001092A80426CF85EC8093BC001092A804C4
:102B400080911804803230F4E0911804F0E0E850ED
:102B5000FC4F10826091180470E0E091F603F09150
:102B6000F70388EF93E00995109218040ACF1092AA
:102B7000860434CFCF92DF92EF92FF920F931F9390
:102B8000E82FF92F05C0015011092109310961F120
:102B9000908196239417B9F305C0015011092109BA
:102BA000310911F1908196239413F7CFC12CD12CC8
:102BB000E12CF12C0AC08FEFC81AD80AE80AF80AEB
:102BC0000C151D052E053F0579F08081862384179D
:102BD00091F36C2D7D2D8E2D9F2D1F910F91FF90C8
:102BE000EF90DF90CF90089560E070E080E090E09B
:102BF0001F910F91FF90EF90DF90CF90089510926A
:102C0000B1041092B00488EE93E0A0E0B0E08093AD
:102C1000B2049093B304A093B404B093B5042AE033
:102C200032E03093AF042093AE042FEF3FEF3093A8
:102C3000BB042093BA0410922106109220068093C0
:102C4000220690932306A0932406B09325068CE1D8
:102C500092E090931F0680931E0682E080933606D2
:102C600084EF91E0909338068093370681E080935B
:102C7000390610923A0610923B0610923C061092CA
:102C80003D0610923E0682E390E00E94F52091E01E
:102C9000811101C090E09093350668E372E08FE205
:102CA00096E00E94F30E8EE292E090932B068093C2
:102CB0002A068EE196E090932D0680932C061092C2
:102CC0002E068AE296E090931D0680931C060C94D3
:102CD0006703CF93DF93CDB7DEB7A6970FB6F8940F
:102CE000DEBF0FBECDBF789484B5826084BD84B54D
:102CF000816084BD85B5826085BD85B5816085BDF7
:102D000080916E00816080936E00109281008091AE
:102D10008100826080938100809181008160809336
:102D2000810080918000816080938000809191007B
:102D300082608093910080919100816080939100E6
:102D4000809190008160809390008091C1008460A8
:102D50008093C1008091C10082608093C100809106
:102D6000C10081608093C1008091C3008160809325
:102D7000C3008091C00082608093C0008091C20037
:102D800081608093C20080917A00846080937A0091
:102D900080917A00826080937A0080917A008160CD
:102DA00080937A0080917A00806880937A001092F4
:102DB000610410924804109249048091D700816008
:102DC0008093D70080EA8093D80089B5806189BD5F
:102DD00089B5826089BD09B400FEFDCF61E070E075
:102DE00080E090E00E9434038091D8008F7C806165
:102DF0008093D8008091E000807F8093E0008091F4
:102E0000E1008E7E8093E1008DE08093E200559A90
:102E1000209A5D9828986FE388E290E00E94FD2058
:102E20006FEB89E290E00E94FD206AEB8AE290E07D
:102E30000E94FD2069E28BE290E00E94FD208FEF6E
:102E40009FEF9093BB048093BA0460E080913606B4
:102E50000E94DE0260E08AE00E94DE0261E089E01A
:102E60000E94DE0261E087E00E94DE0261E088E00D
:102E70000E94DE0261E085E00E94DE0261E086E001
:102E80000E94DE0260E083E00E94DE0260E089E0F2
:102E90000E94B00260E087E00E94B00260E088E03B
:102EA0000E94B00283E291E00E94820880911C0699
:102EB00090911D06DC01ED91FC910190F081E02DD7
:102EC000099580911C0690911D06DC01ED91FC9105
:102ED0000280F381E02D099582E080931D058091A9
:102EE0001C0690911D06DC01ED91FC910480F5819A
:102EF000E02D00E030E020E041E06DE175E0099573
:102F0000882309F441C0812C912C540110E000E089
:102F1000FE0131967F011A830983C7010E940B0DC0
:102F2000682F70E090E080E04AE00E941D0D89E08B
:102F30000E947D080F5F1F4F0031110561F781145A
:102F40009104A104B10409F049C08BE091E00E9412
:102F5000730D64EF71E085E090E00E94700761E01E
:102F600086E00E94B00268EE73E080E090E00E948C
:102F7000340360E086E00E94B00268EE73E080E017
:102F800090E00E943403EBCF80911C0690911D06C7
:102F9000DC01ED91FC910680F781E02D28EE33E015
:102FA0004FEF6DE175E0099597FDADCF80901D0560
:102FB00090901E05982489249824B12CA12CBA2C19
:102FC000A92C982C882480911F05882ABA2CA92C1A
:102FD000982C882480912005882A98CF8EEF90E045
:102FE0000E9482086B2D77278827992740E10E944D
:102FF0001D0D86E392E00E94100D8FEE90E00E947E
:1030000082086A2D70E090E080E04AE00E941D0D89
:103010008EE20E947D08692D70E090E080E04AE039
:103020000E941D0D86E392E00E94100D82E38093C2
:103030001D0585E080931E058FEF80931F0591E0AD
:10304000909320058093210580911C0690911D0688
:10305000DC01ED91FC910480F581E02D00E030E091
:1030600020E045E06DE175E00995811110C0809187
:103070001C0690911D06DC01ED91FC910680F78104
:10308000E02D28EE33E04FEF6DE175E0099594E116
:1030900090931D0581E080931E0590931F058093FA
:1030A000200580911C0690911D06DC01ED91FC919C
:1030B0000480F581E02D00E030E020E044E06DE1A7
:1030C00075E00995811110C080911C0690911D0634
:1030D000DC01ED91FC910680F781E02D28EE33E0D4
:1030E0004FEF6DE175E0099585ED90E00E94730D5D
:1030F00083ED90E00E94820803E010E061E086E04A
:103100000E94B0026CE271E081E090E00E947007E2
:1031100060E086E00E94B00262E370E080E090E050
:103120000E9434030150110949F780913506882324
:1031300079F061E086E00E94B00265EA72E0C701C2
:103140000E94F30EC7010E94D00DC7010E94620EBB
:10315000E9E9F2E06491EAE7F2E0E491F0E0EE0FF1
:10316000FF1FE759FD4F8591949100E412E42FE091
:1031700030E0462F0E94BA154B015C018114910486
:10318000A104B10439F0BFEF8B1A9B0AAB0ABB0A4A
:10319000EFE0BE2290921A04809219048CEA92E029
:1031A0000E94100D092C000CAA08BB084AE0C501BA
:1031B000B401B7FE0BC08DE20E947D086627772719
:1031C000CB01681979098A099B094AE00E941D0D03
:1031D00086E392E00E94100D64EF71E080E090E0E1
:1031E0000E9434033E01F3E16F0E711CCE0105967F
:1031F0009EA38DA300912B0410912C040130110586
:1032000009F4F7C254F40115110529F180E090E0AA
:10321000892B81F30E940000EDCF0230110509F4E3
:1032200021C50330110591F70E94B003882309F4EA
:103230007EC56BE773E0C7010E94F30EC7010E94D1
:10324000D00DC7010E94620E0E94DC0B892BF1F6A3
:103250000E94240FDBCF87E0D3011D928A95E9F706
:10326000BE016C5D7F4FC3010E949601882309F463
:1032700076C186EC91E00E94730D88EB91E00E948C
:1032800082086CA170E090E080E04AE00E941D0D91
:1032900081EB91E00E94730D85EA91E00E94820823
:1032A0004CA150E070E060E0C3010E94940D83EAFD
:1032B00091E00E9482088B890E94810D8C890E9476
:1032C000810D8D890E94810D8E890E94810D88E279
:1032D00090E00E94F5200E94810D89E290E00E941A
:1032E000F5200E94810D8AE290E00E94F5200E9464
:1032F000810D8BE290E00E94F5200E94810D81EA11
:1033000091E00E94820864EF71E080E090E00E940A
:10331000340388E290E00E94F520BB88B81249C1CE
:1033200089E290E00E94F5209C89981342C18AE2CC
:1033300090E00E94F5209D8998133BC18BE290E0BC
:103340000E94F5209E89981334C16CE271E084E0FC
:1033500090E00E94700766EB72E0C7010E94F30ED6
:10336000C7010E94D00DC7010E94620E0E94670330
:103370001B012C01CC24C394D12C0E946703621939
:10338000730984099509603375478105910508F033
:10339000C8C0E5E0CE16D1040CF0C6C061E086E0FE
:1033A0000E94B0026CED72E0C7010E94F30EC701EB
:1033B0000E94D00DC7010E94620E1B8E1A8E1D8EB8
:1033C0001C8E1F8E1E8E4AE0B701C6010E94C51FCB
:1033D000F70101900020E9F731975F01AE18BF08AF
:1033E000B501CE014A960E94030E811192C0CE0112
:1033F0004A960E942B0ECE014A960E94D00DCE0115
:103400004A960E94620E19821A821B821C82BE0199
:10341000665E7F4FC7010E949601882309F46EC043
:103420008DE891E00E94730D8FE791E00E94820881
:103430006A8D70E090E080E04AE00E941D0D88E710
:1034400091E00E94730D8CE691E00E9482084A8D03
:1034500050E070E060E0C7010E94940D8AE691E0C0
:103460000E94820864E670E080E090E00E943403ED
:1034700086E591E00E94730D82E491E00E94730D55
:1034800057014801D5016D915D01C4010E94FD20E5
:10349000BFEF8B1A9B0AEDA1FEA1AE16BF0691F7F6
:1034A0000C5F1F4F8BE391E00E9482084A8D50E031
:1034B00070E060E0C7010E94940D86E291E00E94F6
:1034C000820885E291E00E948208B6010D2C000C72
:1034D000880B990B4AE00E941D0D8CEF92E00E9430
:1034E000610DFFEFCF1ADF0A0E9467031B012C0159
:1034F0006CE271E081E090E00E94700760E086E09D
:103500000E94B0026CE271E080E090E00E9434031F
:1035100034CFBF8EAE8EB7018A8D9B8D0E94F9236A
:103520006ACFCA94CD2881F0043111053CF46FEFC5
:10353000C8010E94FD200F5F1F4FF6CF6CE271E0C3
:1035400084E090E00E94700766E273E0C7010E9489
:10355000F30EC7010E94D00DC7010E94620E0E94A7
:10356000B0038823B1F080913506882309F44ECE4C
:1035700068E373E0C7010E94F30EC7010E94D00DFB
:10358000C7010E94620E0E94DC0B892B39F40E9455
:10359000240F80913506882309F438CE8AE00E94F2
:1035A000870261E0892B09F460E086E00E94B002A6
:1035B0002DCE10E000E01A830983C7010E940B0D95
:1035C000B81631F00C5F1F4F00311105A1F7BCCFC9
:1035D00028012FEF421A520A5B8E4A8ECE014A967C
:1035E0000E940B0D9C898913EDCF680182E0C80E03
:1035F000D11CD9A2C8A2CE0180960E940B0D9D8934
:103600008913E0CF180193E0290E311C3BA22AA2B6
:10361000CE0182960E940B0D9E898913D3CF6FEF46
:1036200072E0C7010E94F30EC7010E94D00DC701CE
:103630000E94620E0E94990764EF71E080E090E0C2
:103640000E9434030E94990780913506882309F46B
:1036500060C0109235066FE073E0C7010E94F30E60
:10366000C7010E94D00DC7010E94620E60E082E394
:1036700090E00E94FD2061E086E00E94B0020E947E
:103680006703609327047093280480932904909320
:103690002A044B015C01E0E38E0EE5E79E1EA11CAF
:1036A000B11C0E94B003882309F49AC068E373E058
:1036B000C7010E94F30EC7010E94D00DC7010E94EE
:1036C000620E0E94DC0B892B09F08AC00E94240F35
:1036D00080912B0490912C04892B09F040CF80918C
:1036E000350681113CCF6AE473E0C7010E94F30EF6
:1036F000C7010E94D00DC7010E94620E60E086E003
:103700000E94B0026AEF70E082E090E00E947007D1
:1037100026CF0E9467034B015C01A8E88A0EA3E153
:103720009A1EA11CB11C1B8ABE016C5D7F4FC30198
:103730000E9496010E94670386169706A806B9069E
:1037400020F580913506811120C0B1E0B093350697
:103750006BE173E0C7010E94F30EC7010E94D00D18
:10376000C7010E94620E61E082E390E00E94FD20AA
:1037700066E970E083E090E00E94700760ED77E01A
:1037800080E090E00E94340376CF6AE070E080E051
:1037900090E00E9434031A830983C7010E940B0D35
:1037A0009B89891368CF5B8E4A8ECE014A960E9410
:1037B0000B0D9C8989135FCFD9A2C8A2CE01809638
:1037C0000E940B0D9D89891356CF3BA22AA2CE01E0
:1037D00082960E940B0D9E89891709F4A4CF4BCFC6
:1037E0000E946703681579058A059B0508F459CF7F
:1037F0006FCF0E94B003882309F423C26CE573E005
:10380000C7010E94F30EC7010E94D00DC7010E949C
:10381000620E0E94240F0E946703AB01BC018091DD
:10382000230490912404A0912504B091260480568D
:103830009444A24FBF4F84179507A607B70708F017
:10384000E5CC2BE430E040E050E067E174E085E057
:103850000E94AB046CE470E080E090E00E943403CE
:103860006BE470E080E090E00E9434032BE430E0F1
:1038700040E050E06DE278E085E00E94AB046CE44B
:1038800070E080E090E00E9434036BE470E080E040
:1038900090E00E9434032BE430E040E050E060E729
:1038A00073E085E00E94AB046CE470E080E090E09F
:1038B0000E9434036BE470E080E090E00E943403E7
:1038C0002BE430E040E050E060EE76E085E00E94DE
:1038D000AB046CE470E080E090E00E9434036BE4A1
:1038E00070E080E090E00E9434032BE430E040E0A0
:1038F00050E064EA73E085E00E94AB046CE470E0A1
:1039000080E090E00E9434036BE470E080E090E09F
:103910000E9434032BE430E040E050E069E477E0BB
:1039200085E00E94AB046CE470E080E090E00E94CF
:10393000340360EB74E080E090E00E9434032BE4F9
:1039400030E040E050E067E174E085E00E94AB04C5
:103950006CE470E080E090E00E9434036BE470E07F
:1039600080E090E00E9434032BE430E040E050E03F
:103970006DE278E085E00E94AB046CE470E080E0EA
:1039800090E00E9434036BE470E080E090E00E94DD
:1039900034032BE430E040E050E060E773E085E082
:1039A0000E94AB046CE470E080E090E00E9434037D
:1039B0006BE470E080E090E00E9434032BE430E0A0
:1039C00040E050E060EE76E085E00E94AB046CE4FD
:1039D00070E080E090E00E9434036BE470E080E0EF
:1039E00090E00E9434032BE430E040E050E064EAD1
:1039F00073E085E00E94AB046CE470E080E090E04E
:103A00000E9434036BE470E080E090E00E94340395
:103A10002BE430E040E050E069E477E085E00E948C
:103A2000AB046CE470E080E090E00E94340360EB53
:103A300074E080E090E00E9434032BE430E040E04A
:103A400050E06AEB72E085E00E94AB046CE470E049
:103A500080E090E00E9434036BE470E080E090E04E
:103A60000E9434032BE430E040E050E065E775E06D
:103A700085E00E94AB046CE470E080E090E00E947E
:103A800034036BE470E080E090E00E9434032BE4A8
:103A900030E040E050E06BE472E085E00E94AB046F
:103AA0006CE470E080E090E00E9434036BE470E02E
:103AB00080E090E00E9434032BE430E040E050E0EE
:103AC00067E974E085E00E94AB046CE470E080E09C
:103AD00090E00E9434036BE470E080E090E00E948C
:103AE00034032BE430E040E050E06EE672E085E025
:103AF0000E94AB046CE470E080E090E00E9434032C
:103B00006BE470E080E090E00E9434032BE430E04E
:103B100040E050E06DED74E085E00E94AB046CE4A1
:103B200070E080E090E00E94340360EB74E080E09D
:103B300090E00E9434032BE430E040E050E06AEB78
:103B400072E085E00E94AB046CE470E080E090E0FD
:103B50000E9434036BE470E080E090E00E94340344
:103B60002BE430E040E050E065E775E085E00E943E
:103B7000AB046CE470E080E090E00E9434036BE4FE
:103B800070E080E090E00E9434032BE430E040E0FD
:103B900050E06BE472E085E00E94AB046CE470E0FE
:103BA00080E090E00E9434036BE470E080E090E0FD
:103BB0000E9434032BE430E040E050E067E974E019
:103BC00085E00E94AB046CE470E080E090E00E942D
:103BD00034036BE470E080E090E00E9434032BE457
:103BE00030E040E050E06EE672E085E00E94AB0419
:103BF0006CE470E080E090E00E9434036BE470E0DD
:103C000080E090E00E9434032BE430E040E050E09C
:103C10006DED74E085E00E94AB046CE470E080E040
:103C200090E00E94340385E00E9482040E946703B2
:103C300060932304709324048093250490932604B6
:103C4000E5CA86E00E94870261E0892B09F060E006
:103C500086E00E94B0026AEF70E080E090E00E948F
:103C60003403D9CD0E9473038111D0CA0E94670327
:103C70004B015C011B012C01F0ED2F0EF7E03F1E04
:103C8000411C511C0E947303811162C10E94670391
:103C90002616370648065906A8F76FE572E0C701F1
:103CA0000E94F30EC7010E94D00DC7010E94620E50
:103CB00069E672E0C7010E94F30EC7010E94D00DB1
:103CC000C7010E94620E04C00E947303811119C0D3
:103CD00061E087E00E94B0020E946703AB01BC0173
:103CE00080911F0490912004A0912104B09122049E
:103CF000880D991DAA1DBB1D84179507A607B70738
:103D000018F760E087E00E94B00268E772E0C70140
:103D10000E94F30EC7010E94D00DC7010E94620EDF
:103D200064EF71E080E090E00E9434036FCA8090FD
:103D30001B0490901C04A0901D04B0901E0420E66B
:103D4000820E2AEE921EA11CB11C0E9467038616E9
:103D50009706A806B90608F059CA10922C041092CA
:103D60002B0460E086E00E94B0022EE730E040E0E5
:103D700050E06EEE71E085E00E94AB046FE770E00A
:103D800080E090E00E9434036FE170E080E090E01A
:103D90000E9434032EE730E040E050E06AEB72E02E
:103DA00085E00E94AB046FE770E080E090E00E9445
:103DB00034036FE170E080E090E00E94340369EA30
:103DC00070E080E090E00E9434032EE730E040E0B5
:103DD00050E06AEB72E085E00E94AB046FE770E0B0
:103DE00080E090E00E9434036FE170E080E090E0BA
:103DF0000E94340329EA30E040E050E06AEB72E0D0
:103E000085E00E94AB046AEA70E080E090E00E94E6
:103E100034036AE270E080E090E00E94340329EA13
:103E200030E040E050E063E972E085E00E94AB04DE
:103E30006AEA70E080E090E00E9434036AE270E099
:103E400080E090E00E94340329EA30E040E050E056
:103E50006BE472E085E00E94AB046AEA70E080E007
:103E600090E00E9434036AE270E080E090E00E94FB
:103E700034032EE730E040E050E06BE072E085E094
:103E80000E94AB046FE770E080E090E00E94340392
:103E90006FE170E080E090E00E9434032EE730E0B4
:103EA00040E050E06AE471E085E00E94AB046FE717
:103EB00070E080E090E00E9434036FE170E080E009
:103EC00090E00E94340369EA70E080E090E00E9494
:103ED00034032EE730E040E050E06AE471E085E032
:103EE0000E94AB046FE770E080E090E00E94340332
:103EF0006FE170E080E090E00E9434032EE730E054
:103F000040E050E066E071E085E00E94AB046FE7BE
:103F100070E080E090E00E9434036FE170E080E0A8
:103F200090E00E94340365E170E080E090E00E9440
:103F3000340385E00E94820468E973E0C7010E94AF
:103F4000F30EC7010E94D00DC7010E94620E5EC928
:103F500066E970E081E090E00E9470070E94A20E86
:103F6000DFCE8FE296E00C94620EFB01DC0105903F
:103F70000D920020E1F70895FC0105900020E9F77B
:103F8000809590958E0F9F1F0895BB274A3031F47E
:103F9000992322F4BDE2909581959F4F0C94D11FF7
:103FA000BB27FB015527AA27880F991FAA1FA41713
:103FB00010F0A41B83955051B9F7A05DAA3308F007
:103FC000A95DA193009779F7B111B1931192CB013B
:103FD0000C94EA1FDC01FC01672F71917723E1F754
:103FE000329704C07C916D9370836291AE17BF07C6
:103FF000C8F30895E89409C097FB3EF49095809526
:10400000709561957F4F8F4F9F4F9923A9F0F92F9E
:1040100096E9BB279395F695879577956795B7951C
:10402000F111F8CFFAF4BB0F11F460FF1BC06F5F02
:104030007F4F8F4F9F4F16C0882311F096E911C014
:10404000772321F09EE8872F762F05C0662371F035
:1040500096E8862F70E060E02AF09A95660F771F49
:10406000881FDAF7880F9695879597F908950E942B
:104070004A200C94BB200E94AD2038F00E94B4204E
:1040800020F0952311F00C94A4200C94AA20112464
:104090000C94EF200E94CC2070F3959FC1F3950FF4
:1040A00050E0551F629FF001729FBB27F00DB11DBC
:1040B000639FAA27F00DB11DAA1F649F6627B00D4C
:1040C000A11D661F829F2227B00DA11D621F739F35
:1040D000B00DA11D621F839FA00D611D221F749F43
:1040E0003327A00D611D231F849F600D211D822F8A
:1040F000762F6A2F11249F5750409AF0F1F08823B1
:104100004AF0EE0FFF1FBB1F661F771F881F9150DD
:104110005040A9F79E3F510580F00C94A4200C94C8
:10412000EF205F3FE4F3983ED4F38695779567954B
:10413000B795F795E7959F5FC1F7FE2B880F911D07
:104140009695879597F9089597F99F6780E870E0AD
:1041500060E008959FEF80EC089500240A941616FD
:10416000170618060906089500240A941216130665
:10417000140605060895092E0394000C11F48823F3
:1041800052F0BB0F40F4BF2B11F460FF04C06F5F0F
:104190007F4F8F4F9F4F089557FD9058440F551FE5
:1041A00059F05F3F71F04795880F97FB991F61F0B9
:1041B0009F3F79F087950895121613061406551F30
:1041C000F2CF4695F1DF08C0161617061806991F9C
:1041D000F1CF86957105610508940895E894BB2791
:1041E00066277727CB0197F90895F999FECF92BDFD
:1041F00081BDF89A992780B50895262FF999FECFA9
:104200001FBA92BD81BD20BD0FB6F894FA9AF99AF3
:104210000FBE019608950E944D21A59F900DB49F59
:10422000900DA49F800D911D112408952F923F920F
:104230004F925F926F927F928F929F92AF92BF92B6
:10424000CF92DF92EF92FF920F931F93CF93DF9362
:10425000CDB7DEB7CA1BDB0B0FB6F894DEBF0FBEBF
:10426000CDBF09942A88398848885F846E847D840C
:104270008C849B84AA84B984C884DF80EE80FD800E
:104280000C811B81AA81B981CE0FD11D0FB6F89484
:10429000DEBF0FBECDBFED010895A29FB001B39F59
:1042A000C001A39F700D811D1124911DB29F700D3F
:1042B000811D1124911D08950E9463216894B111FC
:1042C0000C94EF2008950E94D42088F09F5798F016
:1042D000B92F9927B751B0F0E1F0660F771F881F0B
:1042E000991F1AF0BA95C9F714C0B13091F00E9425
:1042F000EE20B1E008950C94EE20672F782F8827E8
:10430000B85F39F0B93FCCF3869577956795B3954B
:10431000D9F73EF490958095709561957F4F8F4FBA
:104320009F4F089597FB072E16F4009407D077FD52
:1043300009D00E94ED2107FC05D03EF490958195AF
:104340009F4F0895709561957F4F0895A1E21A2EB1
:10435000AA1BBB1BFD010DC0AA1FBB1FEE1FFF1F29
:10436000A217B307E407F50720F0A21BB30BE40B79
:10437000F50B661F771F881F991F1A9469F76095C0
:104380007095809590959B01AC01BD01CF0108957A
:10439000052E97FB1EF400940E94DF2157FD07D0E5
:1043A0000E94A62107FC03D04EF40C94DF21509507
:1043B0004095309521953F4F4F4F5F4F0895909511
:1043C0008095709561957F4F8F4F9F4F0895EE0FA9
:1043D000FF1F0590F491E02D0994AA1BBB1B51E12E
:1043E00007C0AA1FBB1FA617B70710F0A61BB70B65
:1043F000881F991F5A95A9F780959095BC01CD010A
:1044000008950F931F93CF93DF938230910510F49B
:1044100082E090E0E0914106F091420630E020E039
:10442000B0E0A0E0309799F42115310509F44AC0B5
:10443000281B390B24303105D8F58A819B81611501
:10444000710589F1FB0193838283FE0111C04081D4
:1044500051810281138148175907E0F04817590725
:1044600099F4109761F012960C93129713961C937F
:104470003296CF01DF91CF911F910F910895009354
:10448000410610934206F4CF2115310551F0421731
:10449000530738F0A901DB019A01BD01DF01F801E2
:1044A000C1CFEF01F9CF9093420680934106CDCF63
:1044B000FE01E20FF31F819391932250310939835A
:1044C0002883D7CF20913F0630914006232B41F41B
:1044D00020910F01309110013093400620933F0648
:1044E00020910D0130910E012115310541F42DB7B8
:1044F0003EB74091110150911201241B350BE09100
:104500003F06F0914006E217F307A0F42E1B3F0B85
:104510002817390778F0AC014E5F5F4F2417350735
:1045200048F04E0F5F1F5093400640933F06819323
:1045300091939FCFF0E0E0E09CCFCF93DF93009783
:10454000E9F0FC01329713821282A0914106B091EA
:104550004206ED0130E020E01097A1F42081318186
:10456000820F931F20913F0630914006281739078C
:1045700009F061C0F0934006E0933F06DF91CF91D0
:104580000895EA01CE17DF07E8F54A815B819E01B5
:1045900041155105B1F7E901FB83EA83499159912E
:1045A000C40FD51FEC17FD0761F48081918102963D
:1045B000840F951FE90199838883828193819B836E
:1045C0008A83F0E0E0E012968D919C91139700971A
:1045D000B9F52D913C911197CD010296820F931F51
:1045E00020913F06309140062817390739F6309759
:1045F00051F51092420610924106B0934006A093E6
:104600003F06BCCFD383C28340815181840F951F65
:10461000C817D90761F44E5F5F4F88819981480FB1
:10462000591F518340838A819B8193838283211503
:10463000310509F0B0CFF0934206E09341069ECFDA
:10464000FD01DC01C0CF13821282D7CFB0E0A0E021
:10465000ECE2F3E20C9418218C01009751F4CB01A9
:104660000E9401228C01C801CDB7DEB7E0E10C94B5
:104670003421FC01E60FF71F9C0122503109E2179B
:10468000F30708F49DC0D901CD91DC911197C617AD
:10469000D70798F0C530D10530F3CE0104978617BF
:1046A000970708F3C61BD70B2297C193D1936D933D
:1046B0007C93CF010E949D22D6CF5B01AC1ABD0A2C
:1046C0004C018C0E9D1EA0914106B0914206512CCA
:1046D000412CF12CE12C109731F580913F069091FF
:1046E00040068815990509F05CC04616570608F083
:1046F00058C080910D0190910E01009741F48DB743
:104700009EB74091110150911201841B950BE8173F
:10471000F90708F055C0F0934006E0933F06F90111
:1047200071836083A0CF8D919C91119712966C90AC
:10473000129713967C901397A815B90559F56C013B
:1047400042E0C40ED11CCA14DB0420F1AC014A19AA
:104750005B09DA011296159780F0628273825183A9
:104760004083D9016D937C93E114F10471F0D7017A
:104770001396FC93EE93129776CF22968C0F9D1F83
:10478000F90191838083F301EFCFF0934206E09328
:10479000410669CF4816590608F42C017D01D30162
:1047A0009ACFCB010E9401227C01009749F0AE0113
:1047B000B8010E94F023C8010E949D22870153CFB7
:1047C00010E000E050CFFB01DC0104C08D910190AE
:1047D000801921F441505040C8F7881B990B089567
:1047E000FB01DC0102C001900D9241505040D8F70E
:1047F0000895FB01DC0101900D920020E1F708957E
:1048000011E0CBE6D1E004C0FE010E94E721219631
:0A481000CC36D107C9F7F894FFCFAA
:10481A00FFFFFFFFFF00E10000000000000000436F
:10482A000680000000FFFF00000000FF00FF0000FC
:10483A00C1808100000006010B02DC00B801E9001A
:10484A00D2010000000006010B02DC00B801E900F9
:10485A00D20100000000AF005D01930026019C0018
:10486A00370100000000AF005D01930026019C00A3
:10487A003701000000003701150126011501370133
:10488A003701D000C4001501060172015D01A500BF
:10489A00D201B8019F013701F700E900DC00D0001E
:1048AA000000000000000C000C000C000C000C00C2
:1048BA000C00060003000C000C000C000C000C009D
:1048CA000C00060003000C000C000C000C000C008D
:1048DA000C00060003000C000C000C000C000C007D
:1048EA000C00060006001200120012000600060064
:1048FA00060006000600060012001200120012004E
:10490A00120012000A000A000A000A000A000A003D
:10491A00030003000300000000006708E207A8087C
:10492A009D08EE08AC08CA0800000000C30A960AEF
:10493A00D90B6C0A8F0A7C0A6D0A00000000550A1E
:10494A004D0A6610E70B0D0A002030002E003A20AF
:10495A000049676E6963696F6E204F4E0046726543
:10496A006E6F2050726563696F6E61646F21004DCE
:10497A006172636861204F4E002D2D2D2D2D2D2D36
:10498A002D2D2D2D2D2D2D004D6172636861204F27
:10499A004646004672656E6F204E6F205072656300
:1049AA00696F6E61646F210049676E6963696F6E32
:1049BA00204F6666004279506173730052504D2051
:1049CA006D6F746F7200456E7472616E646F2065EC
:1049DA006E206D6F646F20646520726567697374F9
:1049EA00726F206465206C6C617665005072657325
:1049FA00656E746172206C6C61766520706172619B
:104A0A00207265676973747261722000210A00540A
:104A1A0061726A6574612056616C69646121006221
:104A2A007950617373204F66662100627950617311
:104A3A0073204F6E21005461726A65746120496E59
:104A4A0076616C69646121005374617274205072DA
:104A5A006563696F6E61646F21005469656D706F7B
:104A6A00205465726D696E61646F210053746172BE
:104A7A00742050726563696F6E61646F20656E2081
:104A8A004163636573736F72696F00537461727403
:104A9A002050726563696F6E61646F20656E205382
:104AAA0074616E64627921005374616E6279204682
:064ABA0075657261000049
:00000001FF
